:100000000C94CD000C94F5000C94F5000C94F500C4
:100010000C94F5000C94F5000C94F5000C94F5008C
:100020000C94F5000C94790A0C94D8070C944708AA
:100030000C94F5000C94F5000C94F5000C94F5006C
:100040000C94880A0C94F5000C94F5000C94F500BF
:100050000C94F5000C94F5000C94F5000C948E07AC
:100060000C94F5000C94F5000C94F5000C94F5003C
:100070000C94F5000C94F5000C94F5000C94F5002C
:100080000C94F5000C94F5000C94F5000C94F5001C
:100090000C94F5000C94F5000C94F5000C94F5000C
:1000A0000C94F5000C94F5000C94F500080B00027C
:1000B0000202000009040000010202000005240001
:1000C0001001052401010104240206052406000193
:1000D0000705810310004009040100020A00000026
:1000E00007050202400000070583024000000403E8
:1000F000090412010002EF02014041233780000190
:100100000102030141726475696E6F204C4C43001B
:1001100041726475696E6F204D6963726F000000F3
:100120000000240027002A002D00300000000000FD
:10013000250028002B002E003100040404040403D1
:100140000405020202020403020202020606060677
:10015000060604040202020404040802011040809E
:10016000401020408040800802040180402010029E
:1001700001108010204040200000000200090F0004
:1001800000030401000C000000000000000000005B
:100190000000000000000000DB0A11241FBECFEFAA
:1001A000DAE0DEBFCDBF11E0A0E0B1E0E8E3F3E2CA
:1001B00002C005900D92AE34B107D9F722E0AEE44B
:1001C000B1E001C01D92AA36B207E1F710E0CDEC14
:1001D000D0E004C02197FE010E945210CC3CD10710
:1001E000C9F70E948D0C0C949A110C940000CF92C8
:1001F000DF92EF92FF920F931F93CF93DF93D9017A
:10020000E8016A01F9014217530714F06901FA0184
:100210008823D1F1CB016C157D050CF4C6019F013B
:100220008E179F070CF49C01A417B50734F4CF0177
:10023000821B930B9C012C0D3D1D0D2C000CEE0818
:10024000FF08032E000C440B550B2C193D094E09D9
:100250005F09AFEFBFEF0E9402109F01FF0F440B39
:10026000550B2C193D094E095F090E94E30F2883A5
:10027000398382E090E0DF91CF911F910F91FF9041
:10028000EF90DF90CF90089590E080E0F4CFFC01F4
:100290008091C501882311F13FB7F89482E08093E3
:1002A000E9002091F200822F90E01816190614F44C
:1002B00081E090E0882339F0289A44E64093C40115
:1002C0004091F1004083222339F02091F200211166
:1002D00003C02BE62093E8003FBF08958FEF9FEF08
:1002E0000895CF93DF931F92CDB7DEB76983DC010A
:1002F000ED91FC910280F381E02D41E050E0BE01E0
:100300006F5F7F4F09950F90DF91CF91089583E044
:100310008093E9008091F200882319F08AE38093AA
:10032000E8000895CF93DF931F92CDB7DEB7FC01AD
:100330008485958597FD08C02FEF3FEF358724878B
:100340000F90DF91CF910895CE0101960E94470151
:10035000019719F4898190E0F3CF8FEF9FEFF0CFF1
:100360000F931F93CF93DF931F92CDB7DEB78C010E
:10037000FC018485958597FF0BC0CE0101960E94F4
:100380004701019771F4898190E0F801958784878E
:10039000F801848595850F90DF91CF911F910F9182
:1003A00008958FEF9FEFF1CFFC018485958597FD30
:1003B0000BC09FB7F89482E08093E9008091F2002F
:1003C0009FBF90E0019608959FB7F89482E08093D4
:1003D000E9008091F2009FBF90E00895282F30E05F
:1003E000F901E858FE4F9491F901E75AFE4F8491C4
:1003F000265C3E4FF9012491222309F430C0992351
:10040000E9F091509F30D0F4E92FF0E0E65FFD4F26
:100410000C94521038023C021902300234021E02BF
:100420001E021E023F02450249024D0253021E02F5
:100430005702909180009F7790938000E22FF0E028
:10044000EE0FFF1FE45DFE4FA591B4919FB7F894A6
:10045000EC91611132C080958E238C939FBF0895DB
:10046000909180009F7DE8CF90918000977FE4CFAE
:1004700094B59F7794BDE2CF94B59F7DFBCF9091CB
:1004800090009F7790939000D9CF909190009F7D9E
:10049000F9CF90919000977FF5CF9091C0009F7712
:1004A0009093C000CBCF9091C0009F7DF9CF9091E9
:1004B000C200977F9093C200C1CF8E2BCECFCF9337
:1004C000DF9390E0FC01E75AFE4F2491865C9E4F3B
:1004D000FC0184918823D1F090E0880F991FFC01E2
:1004E000E25EFE4FA591B491FC01E45DFE4FC59123
:1004F000D49161110EC09FB7F8948C91E22FE095D2
:100500008E238C932881E223E8839FBFDF91CF91D4
:1005100008958FB7F894EC91E22BEC938FBFF6CF50
:100520003FB7F8948091C0019091C101A091C201A0
:10053000B091C30126B5A89B05C02F3F19F00196C5
:10054000A11DB11D3FBFBA2FA92F982F8827BC012D
:10055000CD01620F711D811D911D42E0660F771F55
:10056000881F991F4A95D1F708958F929F92AF9255
:10057000BF92CF92DF92EF92FF926B017C010E94BB
:1005800090024B015C01C114D104E104F104B9F003
:100590000E949002681979098A099B09683E734094
:1005A0008105910580F321E0C21AD108E108F10824
:1005B00088EE880E83E0981EA11CB11CE4CFFF904A
:1005C000EF90DF90CF90BF90AF909F908F90089565
:1005D0004091790150917A01209177013091780111
:1005E00042175307B4F49091E8009570E1F39091AD
:1005F000E80092FD19C08093F100809179019091FB
:100600007A0101968F739927892B19F48EEF8093C5
:10061000E8008091790190917A01019690937A0196
:100620008093790181E0089580E00895EF92FF9230
:100630000F931F93CF93DF93F82E192FE62E042FDD
:1006400081E0860F880F0E94E80283E00E94E802A2
:10065000CF2DD12FEC0EFD2EF11CCE15DF05B9F0FC
:1006600007FF13C0FE0184910E94E802182F80E06A
:100670000E94E802812321968111EFCFDF91CF9173
:100680001F910F91FF90EF9008958881EDCF81E049
:10069000F5CFDF92EF92FF920F931F93CF93DF93EB
:1006A000D82E8A01EB017B01E40EF51ECE15DF0585
:1006B00059F0D7FE12C0FE0184910E94E8022196F3
:1006C0008111F4CF0FEF1FEFC801DF91CF911F9180
:1006D0000F91FF90EF90DF9008958881EECF2FB7B4
:1006E000F89487708093E9009091E800892F8072D8
:1006F00095FF04C09091F20080E4891B2FBF0895FC
:1007000083E00E946F0390E008957F928F929F9202
:10071000AF92BF92CF92DF92EF92FF920F931F930F
:10072000CF93DF93C82E8B017A018091C50181118F
:1007300010C08FEF9FEFDF91CF911F910F91FF902E
:10074000EF90DF90CF90BF90AF909F908F907F9071
:10075000089580917D0180FF05C08091E000826056
:100760008093E000CE2DDF2DD12C8AEFB82E8C2D7A
:100770008770982E8C2D8072882E8C2D8074782E08
:100780009AE3A92E209719F4DD2009F452C08C2D8C
:100790000E946F0381110AC0BA94BB2051F261E03C
:1007A00070E080E090E00E94B502ECCF8C171D064F
:1007B00011F00CF08C2F9FB7F8949092E9002091E3
:1007C000E80025FD02C09FBFDDCF282F30E0C21B0F
:1007D000D30B882029F08150A0F01092F100FBCFBC
:1007E000F801C7FC0AC0815050F041914093F100DC
:1007F000FACF44914093F10031968150D0F7020F27
:10080000131FDD2021F0A092E800D12CDCCF8091D5
:10081000E80085FD07C0A092E800DD24D39420976E
:1008200091F2F3CF209779F6772069F2A092E80051
:10083000CACF5D9A84E680937C01C7017CCFCF93B9
:10084000DF93EC0180912001882331F083E00E9446
:1008500085031816190634F081E090E09B838A83A3
:1008600080E090E0DF91CF910895615030F02091C9
:10087000F100FC0120830196F8CF289A84E680934A
:10088000C401089580916F0181110DC082E08093B1
:100890006B0184E080936C0110926E0110926D01E7
:1008A00081E080936F018BE691E008950F931F9391
:1008B000CF93DF931F92CDB7DEB782E0898342E406
:1008C00050E06CEA70E080E80E9449030E94420414
:1008D000DC0112960D911C910115110589F0D801CA
:1008E000ED91FC910280F381E02DBE016F5F7F4F9F
:1008F000C801099597FD04C0F80100851185ECCF6A
:1009000089810F90DF91CF911F910F9108950895E4
:10091000DC01FB0112962C91129784819581281796
:10092000190641F491818081813A31F49D7F81E003
:10093000913009F080E008958132E1F79B3029F48D
:1009400082811F968C9381E008959A3099F7828175
:1009500050968C93F8CFDC01FB0188E4808389E416
:10096000818384E482831D969C911D979F709F5B79
:1009700093831D968D919C9124E0969587952A9559
:10098000E1F78F708F5B848385E00895EF92FF928B
:100990000F931F93CF93DF93FB012081213889F5BB
:1009A0002381223271F5DC0112964C91248135812C
:1009B0004217130631F58C01FC01C385D485F12C57
:1009C000E12C209791F04C815D816A817B818E8141
:1009D000811180E80E9449038F3F980759F0E80E83
:1009E000F91E0990D881C02DECCF81E0D8011F9667
:1009F0008C93C701DF91CF911F910F91FF90EF90E2
:100A0000089590E080E0F6CFCF93DF93CDB7DEB7C7
:100A100069970FB6F894DEBF0FBECDBFFC01DB01B6
:100A20008C918F5F8C939E012D5F3F4F8DE0D9019C
:100A30001D928A95E9F729E0298384E08A8391E071
:100A40009D8383E08E832A8721E22B879C879D8765
:100A50009F8722E2288B27E02B8B25E02C8B8E8B27
:100A600020E430E0388F2F8B998F82818B8395859E
:100A70008685998B8A8B838180688D8B49E150E0D4
:100A8000BE016F5F7F4F80E00E94490369960FB6F9
:100A9000F894DEBF0FBECDBFDF91CF910895CF9305
:100AA000DF9380916201811167C081E080935501DD
:100AB000809356012BE531E0309358012093570184
:100AC00010925A01109259012BE231E030935201F9
:100AD0002093510110925D0110925C0110925F0110
:100AE00010925E01809360018093610181EC80939C
:100AF0005B010E944204FC01818190915501482FC5
:100B0000490F5527551F483051059CF5A281B381E7
:100B1000109709F521E531E033832283208120936A
:100B200053018093540180915601820F808320915C
:100B30005701A22FB09158018A2F821B8917C8F440
:100B400081813D91C82FD0E0C25FDE4F38838F5F37
:100B50008183F2CFD90118962D913C9119972115D7
:100B60003105C1F721E531E019963C932E93189792
:100B7000D5CF81E08093620181E591E0DF91CF9153
:100B800008958F929F92AF92BF92CF92DF92EF9291
:100B9000FF920F931F93CF93DF93CDB7DEB7ADB620
:100BA000BEB6809165022DB73EB7281B31090FB63E
:100BB000F8943EBF0FBE2DBF8DB79EB701966C0156
:100BC000E0903402F12C8091300290913102D601F4
:100BD000FC019F01281B390B2E153F051CF42191A8
:100BE0002D93F7CF80913502882359F180912C0203
:100BF00090912D0228E097FD09C068E671E00E94FF
:100C00003E106DE270E00E943E10262F80912E0271
:100C100090912F0268E097FD08C068E671E00E949D
:100C20003E106DE270E00E943E10F601EE0DFF1DD9
:100C300090E1699FB0011124262B2083F7013196A2
:100C40007F0186010E0D1F1D20913A0230913B025B
:100C5000409138025091390260911602709117024A
:100C60008091360281700E94F700E80EF91E86011D
:100C70000E0D1F1D20913E0230913F0240913C021B
:100C800050913D02609118027091190280913602D4
:100C9000869581700E94F700E80EF91E86010E0D00
:100CA0001F1D209142023091430240914002509119
:100CB000410260911A0270911B028091360282FB00
:100CC000882780F90E94F700E80EF91E86010E0DB4
:100CD0001F1D2091460230914702409144025091DD
:100CE000450260911C0270911D028091360283FBC7
:100CF000882780F90E94F700E80EF91E86010E0D84
:100D00001F1D20914A0230914B02409148025091A0
:100D1000490260911E0270911F02809136028295F5
:100D200081700E94F700E80EF91E86010E0D1F1D4E
:100D300020914E0230914F0240914C0250914D0251
:100D400060912002709121028091360285FB8827F4
:100D500080F90E94F700E80EF91E86010E0D1F1D96
:100D60002091520230915302409150025091510211
:100D700060912402709125028091370281700E9457
:100D8000F700E80EF91E86010E0D1F1D2091560278
:100D900030915702409154025091550260912202C5
:100DA0007091230280913702869581700E94F7002E
:100DB000E80EF91E86010E0D1F1D20915A0230917A
:100DC0005B02409158025091590260912602709145
:100DD00027028091370282FB882780F90E94F70062
:100DE000E80EF91E86010E0D1F1D20915E02309146
:100DF0005F0240915C0250915D0260912802709107
:100E000029028091370283FB882780F90E94F7002E
:100E10008E0D9F1D8601080F191F209162023091CF
:100E20006302409160025091610260912A027091C8
:100E30002B0280913702829581700E94F7000E94F8
:100E40004F054C01409165028091640250E07A01A7
:100E5000FFEFEF1AFF0A2DB73EB72E193F090FB665
:100E6000F8943EBF0FBE2DBF0DB71EB70F5F1F4FCB
:100E7000EDB7FEB78183B601C80101960E949111BA
:100E8000F4018381A701B80180640E9485030FB635
:100E9000F894BEBE0FBEADBEDF91CF911F910F91F2
:100EA000FF90EF90DF90CF90BF90AF909F908F908A
:100EB0000895282F8091330261111BC0281768F50F
:100EC000E0913002F091310281E090E0A0E0B0E0EA
:100ED00004C0880F991FAA1FBB1F2A95D2F78095BF
:100EE000908189238083809132028823B1F00C9411
:100EF000C105281790F4E0913002F091310281E0B1
:100F000090E0A0E0B0E004C0880F991FAA1FBB1FAB
:100F10002A95D2F72081822BE5CF08951F920F9258
:100F20000FB60F9211242F933F938F939F93AF93FC
:100F3000BF938091BC019091BD01A091BE01B09181
:100F4000BF013091BB0123E0230F2D3758F50196E7
:100F5000A11DB11D2093BB018093BC019093BD01E5
:100F6000A093BE01B093BF018091C0019091C101D7
:100F7000A091C201B091C3010196A11DB11D809342
:100F8000C0019093C101A093C201B093C301BF916E
:100F9000AF919F918F913F912F910F900FBE0F9026
:100FA0001F90189526E8230F0296A11DB11DD2CFE0
:100FB0001F920F920FB60F9211248F939F938091DF
:100FC000E1009091E100937F9093E10083FF0FC0D7
:100FD0001092E90091E09093EB001092EC0092E304
:100FE0009093ED001092C50198E09093F00082FF7D
:100FF00022C093E09093E9009091F200992319F0B8
:101000009AE39093E80090917C01992341F09091AC
:101010007C01915090937C01911101C05D98909159
:10102000C401992341F09091C40191509093C4015F
:10103000911101C0289884FF18C08091E2008E7E33
:1010400081608093E2008091E1008F7E8093E100D7
:1010500080917D018E7E806180937D019F918F9133
:101060000F900FBE0F901F90189580FFF7CF8091C3
:10107000E2008E7E80618093E2008091E1008E7EAE
:101080008093E10080917D018E7E8160E5CF1F928B
:101090000F920FB60F921124CF92DF92EF92FF9230
:1010A0000F931F932F933F934F935F936F937F9370
:1010B0008F939F93AF93BF93EF93FF93CF93DF9360
:1010C000CDB7DEB76C97DEBFCDBF1092E90080913F
:1010D000E80083FF25C068E0CE0145960E943504F4
:1010E00082EF8093E8008D8987FF39C09091E800F6
:1010F00090FFFCCF982F907609F034C19E894F89DC
:10110000588D2F89F88C911131C0803861F580910C
:101110007E018093F1001092F1008EEF8093E80041
:101120006C960FB6F894DEBF0FBECDBFDF91CF91A6
:10113000FF91EF91BF91AF919F918F917F916F91AF
:101140005F914F913F912F911F910F91FF90EF90E1
:10115000DF90CF900F900FBE0F901F9018959EEFCD
:101160009093E800C7CF1092F100D5CF913059F499
:101170008111D3CF4130510581F680917E018D7F61
:1011800080937E01CACF933049F48111C6CF41309C
:10119000510519F680917E018260F2CF953041F4BD
:1011A0008091E80080FFFCCF20682093E300B5CF5A
:1011B000963009F0A9C00B8D1C8D22E01092E90039
:1011C00010927A0110927901F2122EC010927801D9
:1011D000109277010E9456041F8299E09983FA8247
:1011E00091E09E8390EA98879AEF99872091790100
:1011F00030917A01275F3F4F3C832B838D83109280
:10120000E90010927A01109279011093780100930D
:10121000770149E050E0BE016F5F7F4F80E00E94A0
:1012200049030E94560479CF109378010093770107
:101230000E944204DC0112960D911C9101151105CA
:1012400009F451C1D801ED91FC910480F581E02DA4
:10125000BE016B5E7F4FC8010995009709F03EC142
:10126000F80100851185EACFF3E0FF120EC08F89E7
:10127000882309F440C0823061F440E86DE080E1E9
:1012800091E00E941603811148CF81E28093EB0028
:1012900047CF813029F440E86BE084E091E0F1CF62
:1012A000833099F70E944204DC011296ED90FC9085
:1012B0008E010F5F1F4F6801E114F10479F0D7012F
:1012C000ED91FC910680F781E02DB801C7010995E9
:1012D000080F111DF701E084F184EECFD8011C92B4
:1012E000F60101900020E9F73197BF016C197D09E3
:1012F00040E0C601C6CF6EEE70E0FB01449150E0C5
:1013000080E80E94490309CF973009F4BECF983096
:1013100021F481E08093F10000CF993009F0FDCEF7
:10132000837009F0B2CFEFE0F1E081E031E096E3C5
:101330002191222371F08093E9003093EB00DF01CB
:1013400011972C912093EC009093ED008F5F8730E4
:1013500079F78EE78093EA001092EA008F898093F4
:10136000C501DBCE8B8D9C8D1092E90010927A0125
:10137000109279019093780180937701898D811182
:1013800092C08E899D89913A49F4813209F07DCFCE
:1013900047E050E069E171E080E0B3CF913209F0BD
:1013A00074CF833269F48F89988DB0E0A0E0809388
:1013B000150190931601A0931701B0931801ADCEBB
:1013C000803269F48091E80082FFFCCF67E089E118
:1013D00091E00E9435048BEF8093E8009ECE82322C
:1013E00009F09BCE8F8980932001EEEFFFE7859176
:1013F00094918B3F9C4D51F1E0E0F8E08091190110
:1014000090911A01A0911B01B0911C01803B944066
:10141000A105B105F1F48091200180FD1AC0EE3FD5
:101420008AE0F80789F587E797E7918380838091C1
:10143000600080937B0188E19BE00FB6F894A8954B
:10144000809360000FBE9093600067CEEEEFFAE0ED
:10145000D5CF808191818737974709F05ECEA895D7
:101460008091600088618093600080917B0180930F
:101470006000EE3F2AE0F20789F08091FE0A909129
:10148000FF0A9183808349CE8081918187379807B5
:1014900051F29093FF0A8093FE0AC5CF1092FF0A83
:1014A0001092FE0A3ACE0E944204DC0112960D917F
:1014B0001C910115110509F4E8CED801ED91FC91BC
:1014C0000190F081E02DBE016B5E7F4FC801099550
:1014D000811123CEF80100851185EBCF181619066E
:1014E0000CF41BCED2CEF1E0FF12BECE62EF70E064
:1014F00004CF1F920F920FB60F9211248F9383B1D6
:1015000080936A018F910F900FBE0F901F901895D6
:101510001F920F920FB60F9211242F933F934F9368
:101520005F938F939F93EF93FF9330918600209169
:101530008700832F922F20914F0130915001AC01F1
:10154000421B530B9093500180934F01413737E179
:10155000530778F010924E01FF91EF919F918F9178
:101560005F914F913F912F910F900FBE0F901F9061
:10157000189520914E01CA018F549740833D9840A1
:10158000B0F42830A0F4822F90E056954795FC01E6
:10159000EE0FFF1FE755FE4F518340838D5C9E4F3A
:1015A0003091BA01FC018081832B8093BA012F5FB7
:1015B00020934E01D1CFEF92FF920F931F93CF93C1
:1015C000DF93CDB7DEB7C659D1090FB6F894DEBFA9
:1015D0000FBECDBF1092C9011092C80188EE93E0F2
:1015E000A0E0B0E08093CA019093CB01A093CC011E
:1015F000B093CD018FE391E09093C7018093C60132
:101600008FEF9FEF9093D3018093D201109231021C
:101610001092300210923402109239021092380265
:101620008FEF93E090933B0280933A0210923D0239
:1016300010923C0290933F0280933E02109241022E
:10164000109240029093430280934202109245020E
:1016500010924402909347028093460210924902EE
:101660001092480290934B0280934A0210924D02CE
:1016700010924C0290934F0280934E0210925102AE
:10168000109250029093530280935202109255028E
:10169000109254029093570280935602109259026E
:1016A0001092580290935B0280935A0210925D024E
:1016B00010925C0290935F0280935E02109261022E
:1016C00010926002909363028093620273E07093C1
:1016D000640222E020933302109235028FE380935C
:1016E00036021092370265E0698391E09A8389E0BF
:1016F0008B8334E03C83E1EAED839E8335E83F83CE
:10170000788769878A8739E13B879C8739E23D87FB
:101710002E87A5E1AF87188A35E2398B9A8B55E77A
:101720005B8B9C8B45E94D8B2E8B35E53F8B188E63
:1017300035E6398F1A8E31E83B8F2C8F5D8F9E8F67
:101740004F8FF6E0F8A339A37AA36BA39CA38DA3D4
:101750009EA3AFA318A697E299A79FEF9AA79BA76E
:101760001CA61DA65EA790E19FA748ABF9ABEAAB0C
:101770001BAA8CAB90E39DAB8EAB91E39FAB88AF84
:1017800092E399AF8AAF93E39BAF8CAF94E39DAFA5
:101790008EAF85E38FAF21963FAF219722962FAF73
:1017A000229780EC23968FAF239724968FAF2497B0
:1017B00083E490E00E946C107C0183E4FE0131968A
:1017C000D70101900D928A95E1F787E090E00E94A1
:1017D0006C108C01DC0111961C921E921396FC92E7
:1017E000EE92129783E490E015969C938E93149753
:1017F00016961C920E944F05FC01A385B485109794
:1018000009F073C01487038785859685D8011496DF
:101810002D913C91820F931F96878587909133027B
:10182000892F869586958695977009F066C0809376
:10183000340210913402812F90E00E946C1090933A
:1018400031028093300281E090913502911101C004
:1018500080E0145F810F809365021092170210924E
:101860001602109219021092180210921B02109286
:101870001A0210921D0210921C0210921F02109266
:101880001E02109221021092200210922302109246
:101890002202109225021092240210922702109226
:1018A0002602109229021092280210922B02109206
:1018B0002A028FEF9FEF90932D0280932C0290933A
:1018C0002F0280932E0290E080E0209134022817AE
:1018D0001906A9F0A4F0E0913002F0913102E80F6E
:1018E000F91F10820196F1CFDC018D919C91119727
:1018F0000097D1F70D931C9387CF8F5F98CFCA566F
:10190000DF4F0FB6F894DEBF0FBECDBFDF91CF9192
:101910001F910F91FF90EF900895789484B58260A5
:1019200084BD84B5816084BD85B5826085BD85B583
:10193000816085BD80916E00816080936E00109201
:10194000810080918100826080938100809181007C
:10195000816080938100809180008160809380000D
:1019600080919100826080939100809191008160CC
:10197000809391008091900081608093900080918D
:10198000C10084608093C1008091C1008260809317
:10199000C1008091C10081608093C1008091C3002B
:1019A00081608093C3008091C00082608093C000FA
:1019B0008091C20081608093C20080917A0084602F
:1019C00080937A0080917A00826080937A0080917F
:1019D0007A00816080937A0080917A008068809399
:1019E0007A001092C50110927E0110927D018091C3
:1019F000D70081608093D70080EA8093D80089B5B2
:101A0000806189BD89B5826089BD09B400FEFDCFC2
:101A100061E070E080E090E00E94B5028091D80023
:101A20008F7C80618093D8008091E000807F8093DC
:101A3000E0008091E1008E7E8093E1008DE0809354
:101A4000E200559A209A5D98289861E081E10E9411
:101A50005F0261E08EE10E945F0260E08EE10E9421
:101A6000EE0160E081E10E94EE0149E9E42E41E0EF
:101A7000F42E59E8C52E51E0D52ED0E0C0E0CE01BD
:101A80000E94CD0F182FCE0101960E94CD0F912FED
:101A9000D6018D939D936D01CE0140960E94CD0F8E
:101AA000182FCE0141960E94CD0F912FF7018193FF
:101AB00091937F012296C031D10509F760E084E05F
:101AC0000E945F0261E084E00E94EE0110928000BB
:101AD00082E4809381001092820080E286BB809332
:101AE0006F006AEF70E080E090E00E94B5028091A4
:101AF000AD019091AE01892B39F48091AD019091A7
:101B0000AE018836914098F329E931E0A9E9B1E0C6
:101B1000E9E8F1E041915191483661E0560708F457
:101B2000A5C08D919D914D3D554008F09FC08C5DA5
:101B30009540893E934008F099C02E173F0751F712
:101B40008091AD019091AE018034964008F08EC036
:101B5000109288018091990190919A0120918901B8
:101B600030918A01309339022093380290933B02DE
:101B700080933A0280919B0190919C0120918B016E
:101B800030918C0130933D0220933C0290933F02B0
:101B900080933E0280919D0190919E0120918D0144
:101BA00030918E0130934102209340029093430282
:101BB0008093420280919F019091A00120918F011A
:101BC0003091900130934D0220934C0290934F023C
:101BD00080934E028091A1019091A20120919101E8
:101BE00030919201309349022093480290934B0226
:101BF00080934A028091A3019091A40120919301C6
:101C0000309194013093450220934402909347020F
:101C10008093460281E0809332020E94C10580E0F9
:101C2000E82E80E0F82EC091BA01CC2309F461C1FE
:101C3000C093B90103E311E0E0E0D8018D918D017B
:101C40008C23D1E0DE0F882309F44DC1E150E73049
:101C500008F03CC1F0E0E15DF14F0C945210820FAE
:101C6000910F9A0FA30FAC0FB50FC20F81E08093B5
:101C70008801A9E9B1E0E9E8F1E084EC99E0819319
:101C800091931D921D922E173F07C9F74424439448
:101C900039EA232E31E0332E50908801552009F483
:101CA00059CF8FB7F894C090BC01D090BD01E0909F
:101CB000BE01F090BF018FBF8FB7F8948090BC0138
:101CC0009090BD01A090BE01B090BF018FBF8091E8
:101CD000800190918101A0918201B0918301A501C1
:101CE0009401281B390B4A0B5B0BDA01C901843FB5
:101CF0009140A105B105B8F0C0917F01C111BFC0ED
:101D000060E08EE10E94EE0161E081E10E94EE015F
:101D1000C425C0937F018092800190928101A0929E
:101D20008201B09283018091840190918501A091FC
:101D30008601B091870169E871E0E9E9F1E010E01E
:101D400000E04601570148E8840E43E1941EA11CBF
:101D5000B11C3801660C771CE301C755DE4F2881A2
:101D60003981243C394008F090C048815981208154
:101D700031812417350708F088C0888199819183C3
:101D80008083D501C4010F5F1F4F32966E5F7F4F76
:101D900008301105F1F68093840190938501A0939A
:101DA0008601B09387010097A105B10509F474CFAE
:101DB000C816D906EA06FB0608F46ECFA9E8B1E01A
:101DC000E9E9F1E0819191912D913D91821B930B75
:101DD0008836914008F4512C2E163F0699F755206D
:101DE00009F46BC0C4E061E08EE10E94EE0161E0A5
:101DF00081E10E94EE016CE370E080E090E00E94DF
:101E0000B50260E08EE10E94EE0160E081E10E9497
:101E1000EE016CE370E080E090E00E94B502C150FA
:101E200011F709E911E099E8E92E91E0F92ED0E0E7
:101E3000C0E0F7016181F2E0EF0EF11CCE010E94DB
:101E4000D50FF70132976081CE0101960E94D50F20
:101E5000D80111966C910E5F1F4FCE0140960E94E3
:101E6000D50FF80132976081CE0141960E94D50FBF
:101E70002296C031D105E9F6109288010DCF61E0BC
:101E80008EE10E94EE0160E040CFE301C755DE4FD6
:101E90003E0128813981232B09F475CF488159816E
:101EA000EB01288139814217530708F06CCFD30129
:101EB0008D919C919983888364CF109284011092B4
:101EC00085011092860110928701E6CE8091A901CA
:101ED0009091AA019093170280931602809132028A
:101EE00081110E94C105ED2FD83009F0A6CE1092C5
:101EF000BA011092B901E114F10409F494CE0E94E0
:101F0000000091CE8091AB019091AC0190931902A9
:101F10008093180280913202ED2F882309F48DCE30
:101F2000E0CF8091AD019091AE0190931B02809320
:101F30001A02F0CF8091AF019091B00190931D02F1
:101F400080931C02E7CF8091B1019091B2019093F0
:101F50001F0280931E02DECF8091B3019091B401E5
:101F60009093210280932002D5CF8091B50190916A
:101F7000B60161E08C3D954008F460E080E00E948D
:101F80005907B1CF8091B7019091B80161E08C3DC4
:101F9000954008F460E081E0F2CFF999FECF92BD60
:101FA00081BDF89A992780B50895262FF999FECF1B
:101FB0001FBA92BD81BD20BD0FB6F894FA9AF99A66
:101FC0000FBE01960895052E97FB1EF400940E9403
:101FD000FA0F57FD07D00E940D1007FC03D04EF4F6
:101FE0000C94FA0F50954095309521953F4F4F4FE7
:101FF0005F4F089590958095709561957F4F8F4FB5
:102000009F4F08950E942F10A59F900DB49F900D93
:10201000A49F800D911D11240895A1E21A2EAA1BE0
:10202000BB1BFD010DC0AA1FBB1FEE1FFF1FA21788
:10203000B307E407F50720F0A21BB30BE40BF50B85
:10204000661F771F881F991F1A9469F7609570950E
:10205000809590959B01AC01BD01CF010895A29F91
:10206000B001B39FC001A39F700D811D1124911D6C
:10207000B29F700D811D1124911D089597FB072EAD
:1020800016F4009407D077FD09D00E94581007FC81
:1020900005D03EF4909581959F4F08957095619578
:1020A0007F4F0895EE0FFF1F0590F491E02D0994E6
:1020B000AA1BBB1B51E107C0AA1FBB1FA617B7076E
:1020C00010F0A61BB70B881F991F5A95A9F780958A
:1020D0009095BC01CD0108950F931F93CF93DF938B
:1020E0008230910510F482E090E0E0916802F09176
:1020F000690230E020E0B0E0A0E0309799F42115CB
:10210000310509F44AC0281B390B24303105D8F5B4
:102110008A819B816115710589F1FB01938382831B
:10212000FE0111C040815181028113814817590776
:10213000E0F04817590799F4109761F012960C9344
:10214000129713961C933296CF01DF91CF911F9176
:102150000F9108950093680210936902F4CF21153E
:10216000310551F04217530738F0A901DB019A01FC
:10217000BD01DF01F801C1CFEF01F9CF90936902F2
:1021800080936802CDCFFE01E20FF31F81939193FC
:102190002250310939832883D7CF209166023091AC
:1021A0006702232B41F420912301309124013093C5
:1021B00067022093660220912101309122012115AE
:1021C000310541F42DB73EB74091250150912601CC
:1021D000241B350BE0916602F0916702E217F307CA
:1021E000A0F42E1B3F0B2817390778F0AC014E5F87
:1021F0005F4F2417350748F04E0F5F1F509367025B
:1022000040936602819391939FCFF0E0E0E09CCFF2
:10221000CF93DF930097E9F0FC013297138212828B
:10222000A0916802B0916902ED0130E020E01097C2
:10223000A1F420813181820F931F20916602309199
:1022400067022817390709F061C0F0936702E0932D
:102250006602DF91CF910895EA01CE17DF07E8F516
:102260004A815B819E0141155105B1F7E901FB836C
:10227000EA8349915991C40FD51FEC17FD0761F40A
:10228000808191810296840F951FE901998388834B
:10229000828193819B838A83F0E0E0E012968D91A6
:1022A0009C9113970097B9F52D913C911197CD0111
:1022B0000296820F931F20916602309167022817C1
:1022C000390739F6309751F5109269021092680279
:1022D000B0936702A0936602BCCFD383C2834081D0
:1022E0005181840F951FC817D90761F44E5F5F4F66
:1022F00088819981480F591F518340838A819B812E
:10230000938382832115310509F0B0CFF0936902E0
:10231000E09368029ECFFD01DC01C0CF13821282E0
:10232000D7CFFB01DC0102C001900D92415050401B
:08233000D8F70895F894FFCFDF
:10233800870487048704870487048704870400C107
:102348008081000000FFFFFFFF00E10000000000A7
:102358000000006A0280000000000088040405C62E
:1023680004AB040102040810204080000000007142
:0E237800011F0480038701D4019201B001000F
:00000001FF
